:03000000020E13DA
:0C0E1300787FE4F6D8FD758170020E5A5D
:100FD90051535420737461727421206932635F63C1
:100FE9006865636B3D25640A00716D615839383154
:100FF9005F696E74207374617475733D2564200A8A
:0110090000E6
:030D6500011E006C
:0E11A500EFD3940040077E5ADEFE1F80F32237
:07120500D288D2A8D2AF226B
:07120C00D28AD2AAD2AF2260
:100F5C0012112912120512120C7BFF7A0F79D91279
:100F6C000F1112083B7B007A007922121067E51EE4
:100F7C00B401207B007A007928753B017F0A12119D
:100F8C00C87BFF7A0F79F2753A0085283B120F1156
:0A0F9C00E4F51E7F101211A580CBB2
:03000300020006F2
:0D000600C2A820B205B2A5751E01D2A83215
:03001300020016D2
:0D001600C2AA20B305B2A4751E01D2AA3201
:060D6800011D24011C2501
:0711B300D2A01211BAD2A173
:0711BA00E4FF0FBF0AFC2255
:10119400D2A0D2A11211BAC2A01211BAC2A10211D4
:0111A400BA90
:0A11F300C2A0D2A11211BAD2A022AC
:1010E500AE07E4FDEE30E704D2A08002C2A01211E3
:1010F500B5C2A1BD0702D2A0EE25E0FE1211BA0DC0
:04110500BD08E1221E
:100FA600AE071211BAE4F542FDE54225E0F542D25C
:100FB600A11211BA30A0020542C2A11211BA0DBD8A
:100FC60008E71211BAEE70051211FD80031211CF57
:030FD600AF422205
:08114600121194AF1D1210E517
:10114E001211B330A0047E018002E4FEC2A112117E
:04115E00BAAF0622FC
:0D11CF00C2A01211B5C2A11211BAD2A02205
:0811FD001211B3C2A10211BAE4
:031213000211F3D2
:10116200AE078E1D121213121194AF061210E51261
:0A117200114EAE071211F3AF062272
:10100A00AC05AB07121146EF60037F0022AF031253
:10101A0010E512114EEF60037F0022AF041210E5B3
:0F102A0012114EEF60037F00221211F37F01229B
:100E9F008B3D8A3E893FAC07121146EF60037F00FE
:100EAF0022AF041210E512114EEF60037F002212E1
:100EBF001194E51D04FF1210E512114EEF60037F30
:100ECF000022E4F541E54014FFE541C39F501E7F2A
:100EDF0001120FA6AB3DAA3EA93FEF1201357401D7
:100EEF00253FF53FE4353EF53E054180D8E4FF123E
:100EFF000FA6AB3DAA3EA93FEF1201351211F37FAA
:020F0F000122BD
:10112900C2AF53890F438920759850758DF3758B1C
:0D113900F3438780D2ACD28ED29CD2AF227D
:10117C0012011C6012F599751F01E51F70FC7401BA
:08118C0029F9E43AFA80E92296
:100F11008B378A3889397E007F3C7D007B017A00DE
:100F2100799412028B754900754A00754B3A8537E1
:100F31004C85384D85394E85494F854A50854B51F1
:100F41007B017A007994121039754900754A007550
:0B0F51004B007B017A00799402117CB8
:030023000211DCEB
:0C11DC00309803C29832C299751F00328F
:100A3A00716D61583938315F636869705F69642024
:100A4A0069643D30782578200A00716D613639383D
:100A5A00315F696E697469616C697A65207265745F
:100A6A003D2564207265675F616464723D25782064
:100A7A000A00716D61373938315F696E697469616D
:100A8A006C697A65207265743D25640A00716D612E
:100A9A00363938312066696E64200A00716D613713
:100AAA003938312066696E64200A00716D612061EF
:100ABA0063632063686970206964206E6F742064C0
:100ACA006566696E6564212121200A00716D61588D
:100ADA00393831206368616E676520493243206185
:100AEA006464203D203078257821200A00726561EF
:100AFA00642078797A206572726F72212121000050
:0F0B0A00000000000000000000000000000000DC
:100D6E00606000340001000100010000000100027B
:100D7E00FFFF00010001000100000002FFFFFFFF66
:100D8E0000010000000100020001FFFF0001000150
:100D9E0000000002FFFF0001FFFF00000001000243
:100DAE0000010001FFFF0001000000020001FFFF33
:100DBE00FFFF000000010002FFFFFFFFFFFF000129
:100DCE0000000002011B24011A255E00001180366E
:100DDE00B6FF0536001180FF050F02100C1005112D
:100DEE00802B07162019202000FF0156001E1180AF
:100DFE0036B6FF0536000F021005200511805F8004
:040E0E005F00FF0181
:10110900E4FDFCC3ED9FEC9E5015E4FBFA0BBB001C
:10111900010ABA03F8BBE8F50DBD00010C80E42211
:0B11E800E4F53312100A8F337F012260
:0711C1007B00753B067F0176
:0711C800853B40120E9F223F
:10109400E4F52B7D807F111211E87B007A00792B17
:1010A400753B01E4FF1211C87BFF7A0A793A753A5D
:0A10B40000852B3B120F11AF2B2219
:100BE800E4F52BF52C78317C00FD7BFF7A0B790935
:100BF800FE7F021200F6752F0075300FE4F52DF513
:100C08002EC3E52E9530E52F6480F8E52D64809895
:100C18004003020CA4E52E25E0FFE52D33FE740009
:100C28002FF58274003EF583E0F53174012FF582CB
:100C380074003EF583E0F532E531B4FF04AF32804D
:100C48004BE531B40F20E532B40208750A00750B84
:100C5800808013E532B40408750A00750B408006DD
:100C6800750A01750B00AD32AF311211E8752B0012
:100C78008F2CE52C452B70127BFF7A0A7954852B33
:100C88003A852C3B85313C120F117F027E001211F0
:100C980009052EE52E7002052D020C09AE2BAF2C8E
:010CA8002229
:100B1900E4F52BF52C78317C00FD7BFF7A0B790B02
:100B2900FE7F021200F6752F0075300BE4F52DF5E6
:100B39002EC3E52E9530E52F6480F8E52D64809865
:100B49004003020BE3E52E25E0FFE52D33FE741E7D
:100B59002FF58274003EF583E0F531741F2FF5827D
:100B690074003EF583E0F532E531B4FF04AF32801D
:100B790059E531640F702EE532B40205750A088013
:100B890021E532B40405750A048017E532B4080575
:100B9900750A02800DE532B40F05750A01800375E7
:100BA9000A10750B00AD32AF311211E8752B008FA9
:100BB9002CE52C452B70117BFF7A0A797C852B3A21
:100BC900852C3B120F1180127F027E00121109053C
:0F0BD9002EE52E7002052D020B3AAE2BAF2C220B
:10083B00E4F529F52AAF1B1211627F647E001211B9
:10084B00097F127D007B007A00790812028B12104F
:10085B00948F08E508C394A94015E508D394B650C6
:10086B000E7BFF7A0A7997120F11E4F5098028E5C0
:10087B0008C394E04015E508D394E6500E7BFF7A4D
:10088B000A79A6120F11750901800C7BFF7A0A7980
:10089B00B5120F11750902E5096402706E7BFF7AC0
:1008AB000A79D6753A26120F117FE87E03121109C9
:1008BB00751B26751A27AF1B1211627FE87E031278
:1008CB0011091210948F08E508C394A94015E50887
:1008DB00D394B6500E7BFF7A0A7997120F11E4F579
:1008EB00098028E508C394E04015E508D394E65049
:1008FB000E7BFF7A0A79A6120F11750901800C7B0A
:10090B00FF7A0A79B5120F11750902E50970051204
:10091B000BE88008E509B40109120B198E298F2AFF
:10092B008005E4F529F52A750C03E50C75F00CA48C
:10093B002434F9740035F0FA7B01780D7C007D00CE
:0C094B007E007F0C1200F6AE29AF2A22BD
:1006E1008B2E8A2F893078317C007D007BFF7A0B3D
:1006F100790D7E007F061200F67A0079311211C160
:10070100EF700D7BFF7A0A79F7120F11E4FEFF22D9
:10071100E53275F004A4FFE531C413135403FDEF72
:100721004DFFAB2EAA2FA930E5F08FF012023FE565
:100731003475F004A4FFE533C413135403FDEF4DE6
:10074100FFAB2EAA2FA930900002E5F08FF0120224
:100751005EE53675F004A4FFE535C413135403FDBB
:10076100EF4DFF900004E5F08FF012025EE4FFAB65
:100771002EAA2FA93075F002EFA4F58285F083121D
:1007810001BAB40017E5F0B4021275F002EFA4F556
:100791008285F08374FE75F00002082AAB2EAA2F21
:1007A100A93075F002EFA4F58285F0831201BAE554
:1007B100F030E17875F002EFA4F58285F08374FFE3
:1007C100F5F01201F275F002EFA4F58285F08312C3
:1007D10001BAF4FDE5F0F4FC75F002EFA4F58285B1
:1007E100F083EC8DF012025E75F002EFA429F9EAB4
:1007F10035F0FA12018FFDE5F054018DF012023F40
:10080100AB2EAA2FA93075F002EFA4F58285F083F3
:100811001201BAFDC3E49DFDE495F0FC75F002EF11
:10082100A4F58285F083EC8DF012025E0FEF640374
:0A08310060030207707E007F0122C1
:100CA9008B2E8A2F893078317C007D007BFF7A0B6F
:100CB90079137E007F061200F67A0079311211C18C
:100CC900EF700D7BFF7A0A79F7120F11E4FEFF220C
:100CD900E532FFE531AB2EAA2FA930CF8FF01202F2
:100CE9003FE534FFE533AB2EAA2FA930900002CFA0
:100CF9008FF012025EE536FFE535900004CF8FF0E4
:100D090012025E12018FAEF07802CEA2E713CE1363
:100D1900D8F8FFEE8FF012023FAB2EAA2FA9309020
:100D290000021201BAAEF07802CEA2E713CE13D8B0
:100D3900F8FF900002EE8FF012025E90000412019B
:100D4900BAAEF07802CEA2E713CE13D8F8FF90001E
:0C0D590004EE8FF012025E7E007F01228B
:101067008B298A2A892BE50970051206E1800EE58E
:1010770009B4010FAB29AA2AA92B120CA98E2C8F10
:0D1087002D8005E4F52CF52DAE2CAF2D22AB
:100957008B668A6789687B007A00796B121067ACAF
:100967006BAD6CAE0DAF0E120147AD07E51425E078
:10097700FFE51333AB66AA67A9688F82F583EE8D0F
:10098700F012025EAC6DAD6EAE0FAF10120147AD47
:1009970007E51625E0FFE515338F82F583EE8DF029
:1009A70012025EAC6FAD70AE11AF12120147AD0708
:1009B700E51825E0FFE517338F82F583EE8DF012FA
:1009C700025E12018FFFAEF07C267D4F120147AC0D
:1009D7000AAD0B120159AB66AA67A968EE8FF01230
:1009E700023FAB66AA67A9689000021201BAFFAE80
:1009F700F07C267D4F120147AC0AAD0B12015990CE
:100A07000002EE8FF012025E9000041201BAFFAEF0
:100A1700F07C267D4F120147AC0AAD0B120159AB92
:100A270066AA67A968900004EE8FF012025EAE69AD
:030A3700AF6A2281
:100E1F00020F5CE493A3F8E493A34003F68001F27E
:100E2F0008DFF48029E493A3F85407240CC8C333D4
:100E3F00C4540F4420C8834004F456800146F6DFA3
:100E4F00E4800B0102040810204080900D65E47EC1
:100E5F00019360BCA3FF543F30E509541FFEE49398
:100E6F00A360010ECF54C025E060A840B8E493A35F
:100E7F00FAE493A3F8E493A3C8C582C8CAC583CA8A
:100E8F00F0A3C8C582C8CAC583CADFE9DEE780BE42
:010E120000DF
:10002600E709F608DFFA8046E709F208DFFA803EBC
:1000360088828C83E709F0A3DFFA8032E309F608A9
:10004600DFFA8078E309F208DFFA807088828C8311
:10005600E309F0A3DFFA806489828A83E0A3F608C5
:10006600DFFA805889828A83E0A3F208DFFA804C9F
:1000760080D280FA80C680D4806980F28033801076
:1000860080A680EA809A80A880DA80E280CA8033DF
:1000960089828A83ECFAE493A3C8C582C8CCC58357
:1000A600CCF0A3C8C582C8CCC583CCDFE9DEE78027
:1000B6000D89828A83E493A3F608DFF9ECFAA9F0A6
:1000C600EDFB2289828A83ECFAE0A3C8C582C8CCFC
:1000D600C583CCF0A3C8C582C8CCC583CCDFEADE15
:1000E600E880DB89828A83E493A3F208DFF980CC77
:1000F60088F0EF60010E4E60C388F0ED2402B40470
:100106000050B9F582EB2402B4040050AF23234516
:06011600822390007673C5
:10011C00BB010689828A83E0225002E722BBFE02E1
:09012C00E32289828A83E4932214
:10013500BB010689828A83F0225002F722BBFE01A9
:02014500F322A3
:10014700EF8DF0A4A8F0CF8CF0A428CE8DF0A42ECC
:02015700FE2286
:10015900C2D5EC30E709B2D5E4C39DFDE49CFCEEC1
:1001690030E715B2D5E4C39FFFE49EFE1202B7C380
:10017900E49DFDE49CFC80031202B730D507C3E47B
:060189009FFFE49EFE2230
:10018F00BB010A89828A83E0F5F0A3E0225006873B
:10019F00F009E71922BBFE07E3F5F009E3192289FD
:0B01AF00828A83E493F5F07401932230
:1001BA00BB0110E58229F582E5833AF583E0F5F083
:1001CA00A3E0225009E92582F886F008E622BBFE60
:1001DA000AE92582F8E2F5F008E222E5832AF583A6
:0801EA00E993F5F0A3E993226B
:1001F200BB010DC58229C582C5833AC58302030CA2
:100202005011C58229F808E5F026F618F5F0E582C6
:1002120036F622BBFE11C58229F808E225F0F5F078
:10022200F218E23582F222F8E58229F582E5832A84
:0D023200F58374019325F0F5F0E493382274
:10023F00BB010A89828A83F0E5F0A3F0225006F70A
:0F024F0009A7F01922BBFE06F3E5F009F3192207
:10025E00F8BB0111E58229F582E5833AF583E8F0D2
:10026E00E5F0A3F0225009E92582C8F608A6F0228F
:0D027E00BBFE09E92582C8F2E5F008F22276
:10028B00EF4E6012EF60010EEDBB010B89828A838A
:10029B00F0A3DFFCDEFA2289F05007F709DFFCA997
:0C02AB00F022BBFEFCF309DFFCA9F022EE
:10103900854C55854D56854E57EBC54FFBEAC55036
:10104900FAE9C551F97F09785812011CF60809E92E
:0E10590070010ADFF4AB4FAA50A9510203E167
:1002B700BC000BBE0029EF8DF084FFADF022E4CC2B
:1002C700F875F008EF2FFFEE33FEEC33FCEE9DECF4
:1002D700984005FCEE9DFE0FD5F0E9E4CEFD22ED3A
:1002E700F8F5F0EE8420D21CFEADF075F008EF2F84
:1002F700FFED33FD4007985006D5F0F222C398FD75
:050307000FD5F0EA2211
:10030C00C5F0F8A3E028F0C5F0F8E582158270027C
:06031C001583E038F02219
:10038500E5612455F8E60561227852300702785573
:10039500E475F00112034F02011C2000EB7F2ED201
:1003A500008018EF540F2490D43440D4FF30040B50
:1003B500EF24BFB41A0050032461FFE56260021503
:1003C500620565E5657002056430070D7852E475D0
:1003D500F00112034FEF0201350210BE7403D2077C
:1003E5008003E4C207F5618B528A538954E4F562B0
:1003F500F564F565E56260077F201203C080F57539
:1004050063FFC201C200C202C203C205C206C2081E
:1004150012038EFF700D3007057F001203D1AF6503
:10042500AE6422B4255FC2D5C20412038EFF24D068
:10043500B40A00501A75F00A786230D50508B6FF7F
:100445000106C6A426F620D5047002D20380D9245D
:10045500CFB41A00EF5004C2E5D2040205D1D2018F
:1004650080C6D20080C0D20280BCD2D580BAD20567
:1004750080B47F201203C02002077401B5620040DA
:10048500F1120385FF1203C00203F9D208D20680D8
:1004950095120385FB120385FA120385F94A4B7001
:1004A5000679A27A067BFF20022EE562602A7E008D
:1004B5008E8275830012032260060EEE656370F06E
:1004C500C2D5EBC0E0EAC0E0E9C0E0EE120618D004
:1004D500E0F9D0E0FAD0E0FB12011CFF60AAEBC006
:1004E500E0EAC0E0E9C0E01203C0D0E02401F9D0A1
:1004F500E03400FAD0E0FBE5630460DCD563D98025
:10050500877BFF7A067914D202809C791080027964
:1005150008C206C2088008D2D5790A8004790AC2C1
:10052500D5E563047002F563E4FAFDFEFF12038569
:10053500FC7B08200113120385FD7B1030000A1295
:100545000385FE120385FF7B20EC3382D592D550BF
:1005550013C3E43000069FFFE49EFEE42001039DE3
:10056500FDE49CFCE4CBF8C201EC700CCFCECDCC05
:10057500E824F8F870F38017C3EF33FFEE33FEED90
:1005850033FDEC33FCEB33FB994002FB0FD8E9EB71
:10059500300105F8D0E0C448B201C0E00AEC4D4E88
:1005A5004F78207B0070C2EAB5630040BCC0E01202
:1005B500061AD0F0D0E0200104C4C0E0C4B201C0E6
:1005C500F01203A9D0F0D5F0EB0203F912035F0492
:1005D500965305105804674C04634205144F051CD7
:0F05E50044051C49047C430522550506460506BE
:1005F4004505064706C250046B2D046F2E04922B4A
:1006040004732304902006AB2A042B480000048AB8
:100614003F3F3F00790AA2D5200314300509B910E1
:10062400020404B9080104A2D520060250010420E2
:1006340002689202B562005034C0E07F2030031992
:100644007F30A20272067205500F120671C202C2F6
:1006540006C205C2087F30800F300503E9C0E012EE
:1006640003C0300503D0E0F9D0E0B562CC30051703
:100674007F30B9100C1203C07F583004077F788094
:1006840003B908031203C03002057F2D0203C07FA3
:10069400202008F87F2B2006F322920280CF286EB8
:1006A400756C6C2900D2011203853001F8C20178FF
:1006B4006230D50108F602042B2D50434958120329
:1006C400852403B405004001E49006BD931203B1F0
:0D06D400743A1203B1D203756204020510DE
:10032200BB010CE58229F582E5833AF583E0225090
:1003320006E92582F8E622BBFE06E92582F8E222DA
:0D034200E58229F582E5833AF583E49322F4
:10034F00FAE6FB0808E6F925F0F618E6CA3AF622AF
:10035F00D083D082F8E4937012740193700DA3A32D
:10036F0093F8740193F5828883E473740293686041
:06037F00EFA3A3A380DF41
:1010BE00EFB40A07740D1210C9740A309811A8996A
:1010CE00B8130CC2983098FDA899C298B811F63092
:0710DE0099FDC299F599226A
:00000001FF
